:020000040800F2
:10000000B83400205D010008CB5000086D3E0008A8
:1000100000000000000000000000000000000000E0
:10002000000000000000000000000000A9550008CA
:100030000000000000000000D15000081157000827
:100040006F010008000000006F0100086F01000848
:100050006F0100086F0100086F01000825100008FB
:10006000000000006F0100086F0100086F01000828
:100070006F0100086F0100086F0100080000000018
:100080006F0100086F0100086F0100086F01000890
:100090006F0100086F0100086F0100086F01000880
:1000A0006F0100086F0100086F0100086F01000870
:1000B0006F0100086F01000800F002F800F03EF840
:1000C0000CA030C8083824182D18671EA246AB466D
:1000D00054465D46AC4201D100F030F87E460F3EFA
:1000E000B6460FCC0126334200D0FB1A3343A2465A
:1000F000AB461847647B0000847B0000103A02D3B3
:1001000078C878C1FAD8520701D330C830C101D5B8
:1001100004680C60704700000023002400250026BE
:10012000103A01D378C1FBD8520700D330C100D5B3
:100130000B6070471FB51FBD10B510BD00F0A8FDC6
:100140001146FFF7F7FF05F0D9FF00F0C0FD03B43B
:10015000FFF7F2FF03BC00F011FE000007488047E4
:1001600007480047FEE7FEE7FEE7FEE7FEE7FEE79B
:1001700004480549054A064B70470000A35700088C
:10018000B9000008B82E0020B8340020B830002094
:10019000B830002001E004C0091F0429FBD28B07FE
:1001A00001D50280801CC90700D002707047002969
:1001B0000BD0C30702D00270401C491E022904D391
:1001C000830702D50280801C891EE3E70022EEE748
:1001D0000022DFE7002203098B422CD3030A8B4263
:1001E00011D300239C464EE003460B433CD400222F
:1001F00043088B4231D303098B421CD3030A8B4241
:1002000001D394463FE0C3098B4201D3CB01C01A0E
:10021000524183098B4201D38B01C01A52414309D9
:100220008B4201D34B01C01A524103098B4201D3C7
:100230000B01C01A5241C3088B4201D3CB00C01A34
:10024000524183088B4201D38B00C01A52414308AC
:100250008B4201D34B00C01A5241411A00D20146D1
:100260005241104670475DE0CA0F00D0494203106A
:1002700000D3404253409C46002203098B422DD3B9
:10028000030A8B4212D38901FC2212BA030A8B4261
:100290000CD3890192118B4208D3890192118B42B0
:1002A00004D389013AD0921100E08909C3098B4235
:1002B00001D3CB01C01A524183098B4201D38B0178
:1002C000C01A524143098B4201D34B01C01A52411B
:1002D00003098B4201D30B01C01A5241C3088B4260
:1002E00001D3CB00C01A524183088B4201D38B004B
:1002F000C01A5241D9D243088B4201D34B00C01AD5
:100300005241411A00D201465241104663465B10E9
:1003100001D34042002B00D54942704763465B1031
:1003200000D3404201B50549002802DC491C0840C1
:1003300000E00846C046C04602BD00BFFFFFFF7F89
:1003400070477047704700000246C80FC0078143DE
:100350004B0030B54B405B009B0D20D01923DB06D2
:10036000C91801231B05994220DB0324A407042597
:100370001346AB400BD3002B04D1EB0613409B007C
:10038000E34204D401246407002312195941FF23D6
:100390001B0599420BD2C9000143500F09E0CB0263
:1003A00004D501430803024305D0054830BDFF21B1
:1003B000C905084330BD084607210905884330BDFB
:1003C0000000C07FF0B50C46871A9C410D46861A86
:1003D0009D4103D2C01BA141D21963410D0D1F0DD8
:1003E000C94EEC1BAE435CD07F057F0D0026002F6D
:1003F00051D02D05AC46A943DD020123ED0A1B05B2
:100400001D4320231B1B24D41746E7403818714195
:100410002F46E740CC199D402818314661410C0D0C
:1004200027D161449A4013D50023401C5941520002
:100430000ED14008400001224B005205D34207D3A1
:1004400005204007C14201D5B04900E0B04930461F
:10045000F0BD6B00002A00D001229A181F23203C17
:100460001B1B01D5002302E0E540281871410C0D4B
:10047000D7D0012424050919C407CD07400849082D
:10048000E40F28436144002CD5D00024401C614176
:100490009A40D0D1CDE76A05520DD9D1C90FC9070D
:1004A000D5E79C4D4E00002801D0012400E0002437
:1004B00034195F00002A01D0012600E00026BE1991
:1004C000954FAC420CD8AE420AD8B44206D00125B2
:1004D0006D05EC42BCD010461946F0BD9942FCD0E7
:1004E00000203946F0BDF0B51FB40C460F46811A06
:1004F0009F412546861A9D4106D20125ED076F4092
:10050000401ABC4152187B41210D1E0D8D1BAC467B
:100510007D4D8D437ED075056D0D7CD00D05AE46AD
:10052000AC431B031B0B794D52429D412023664671
:100530009B1B14D31746F7403818002600907441CF
:1005400060462F460741E41900989D4028186641EF
:1005500016D4714671189A4025D5012320E09318CE
:100560002A466A415200002B00D0521C1E23203E16
:100570009B1B002B61DD3541EE1728186641E8D53D
:10058000001876415B1C9A4000D3401C4B05F318C1
:100590001524E34010D3002B52D071467118D30FAD
:1005A000C01802D3491C05B0F0BD0123DB079A42F5
:1005B000F9D140084000F6E701225205B21801D1F6
:1005C000002853D00123CC0ADB029943891E002A5C
:1005D00008D1020C03D0020C0004103902E00246DC
:1005E000002020390023550B05D112020823550B9A
:1005F00001D152010D23550C01D112011B1DD50C47
:1006000001D192009B1C150D01D152005B1C2025CD
:10061000EE1A01E02CE022E00546F5401543984033
:10062000CA1AE10769181305C918002ABBDA0320A2
:1006300040070818C10FC9070FE071466118B2E7FB
:10064000F10740080843711071444A000CD001239F
:100650005B059A42A7D2C90FC9070020A3E7490545
:10066000490D26D1002001E00028F4D100219AE7AD
:10067000284D6600002801D0012100E000217118FA
:100680005F00002A01D0012600E00026BE19224F9B
:10069000A94210D8AE420ED8B14208D001256D054E
:1006A000E94206D01946A802414010467BE79C4229
:1006B00001D0214677E70020394674E710B50C4693
:1006C0005C4005D50124E4076340FFF70CFF10BD33
:1006D000FFF778FE10BD30B40C465C4004D5012411
:1006E000E407634030BC6DE630BCFCE670B5012425
:1006F000E40761400D465D4002D4FFF763FE70BD24
:100700006340FFF7F0FE70BDFF0700000000F0FF40
:100710000000F07F0000E0FF0000F87FF0B58B4C98
:100720000F09254689B0BD437BD01D092646AE433F
:10073000FAD00E465E402740F60F3E43254071D06A
:1007400024012142FBD0FF24AD19A4042D1B0395E5
:1007500001252D05DB02DB0AC9022B43C90A294307
:100760001E010901040F130F050121431701880B16
:10077000820391432D098C46A90B1E438A0395439E
:10078000B30B9A0396433F09BA0B9403A74302960F
:100790002E467E430497B6464E19D7190C4601964D
:1007A000544305977E43371B7646BF1B3601B6463A
:1007B000BE0B361900967646BC043719009C01D34F
:1007C000641C00946400002F01D001263443029E73
:1007D000049F754366467E430496760034196E0086
:1007E00034190094029C019E1C196643751BAE4689
:1007F000069465464519059C05956C435943754615
:100800000891691A0191049E01465143A41B049169
:10081000611A009C0791E10605D06109012211438C
:1008200002E072E06EE06109089D00272C0A2D06A7
:100830006918049D7C412A0A2D066918019D6241B0
:10084000AC0DAD026D185441079A910D92025519E5
:100850006141029A644658435443069B059A5A43A1
:10086000121A131B9A0E9B015B187A41010B0005AB
:10087000C3185141220A200644195A419A4200D213
:10088000491C01204002814203D315230226F6436E
:1008900002E014230326F6432020C51AA940174678
:1008A000AF40DA400A4320460399D8400914731830
:1008B00019055118039A3843D2075140AC4009D06A
:1008C0000122944006D30022401C5141002C01D14A
:1008D000400840001E4A934212D301220398920618
:1008E000904207DB0520400709181A480143C0124F
:1008F000414004E0032040070818C10FC907002049
:1009000009B0F0BD0020F107FAE705180C464C418C
:1009100011486D42A04115D394181A465A410E4809
:10092000644290410ED301204A004005824209D31F
:100930005A00824206D35940C90F084AC90700200D
:100940001143DDE700200649DAE700000000FF0759
:10095000FE070000FFFFFF7F0000E0FF0000F07FC8
:100960000000F87F0121C9050123411842001B0640
:10097000D3185B0E0AD0C1100722D206891840078F
:100980005242D14201D5520089187047090208D558
:100990000146002A03D0C10FC90700207047104646
:1009A0007047420202D00020024970470721090522
:1009B0000143F4E70000F87FF0B5FF252D04C609D8
:1009C000C209FF2704462E400137CB093E43484069
:1009D0002A402B400746002A6BD0002B69D0AA4240
:1009E00067D0AB4265D0002800DA32460125ED051C
:1009F00029432C4309022002090AD21A4B0C7F24F6
:100A0000E31A434C000A7C44E35C7D24240412195D
:100A100014145B00A218884201D3521C00E040006D
:100A200049420C465C4324115C43DB016415E31826
:100A3000040A5C43C502200D0C4644436419250A90
:100A40005D432303EC0C0D46654300030019EB18CE
:100A50004C42A34201D35B18401CD4052018002B44
:100A600007D05B00C91804D3401C002901D14008FD
:100A700040003F2189048A4209D3002A08DC11067C
:100A8000090F04D0032149074018C00FC007F0BD6B
:100A900001224100120689187F2252069142F6D2A5
:100AA00005214907C84201D59010F0BDFF20C005BF
:100AB000F0BD002F00DA32461648AA4207D2AB42F8
:100AC00005D21902090E17D0F80FC007F0BDFF2597
:100AD00063002D06AB42F9D84900A942F6D8AB42D3
:100AE00001D1A942F2D0A94201D1002101E0610067
:100AF0004908D0050843F0BD1102090EFBD0FF20C4
:100B00000243D005F0BD0A460146104654E70000F6
:100B1000566900000000C07F1F22030C02D10F2283
:100B200000041CD0030E01D10002083A030F01D1CA
:100B30000001121F830F01D18000921E002801DBEB
:100B40004000521ED205511802125118192290402D
:100B500004D3491C002801D14908490008467047C0
:100B6000C10FC90700D04042012292071143D3E7C9
:100B700001218907D0E710B500F050F8006810BDDA
:100B800010B5044600F04AF8046010BD30B5C30D3E
:100B90001906214A090E31D0FF292FD000283ADB4F
:100BA00001025002014301207D33C34000D24908B5
:100BB000012080071724091A2406490882102343BC
:100BC000FF252D064C00211A04D4891A02D45400A2
:100BD000201800E0214652085B19F3D51A2204467A
:100BE000944007D382068A4203D180218030884313
:100BF00000E08030C009D905081830BDFF2904D0B5
:100C00004100FAD0C00FC00730BD410201D01046EC
:100C100030BD0028FCDAFAE70000C07F00487047CA
:100C20001800002010B5FF231B0644009C421DD86D
:100C30004C009C421AD80346124A0B4307D4401A70
:100C400002D3EFF3008010BDEFF3008010BD081A4F
:100C500003D3EFF30080904305E0EFF30080012120
:100C60009043C907084380F3008810BD0D231B047F
:100C70001A4204D01146002000F031F810BD00F0F7
:100C800045F810BD00000090004870471800002093
:100C90007546FFF7F9FFAE46050069465346C008A2
:100CA000C000854618B020B5FFF762FA60BCB646B2
:100CB00000260027C0C5C0C5C0C5C0C5C0C5C0C5C9
:100CC000C0C5C0C5403D490849008D46704710B5B4
:100CD0000446C046C0462046FFF739FA10BDC80298
:100CE00012D54803400F002804D0C803C043012197
:100CF00088407047EFF300800001000903210907D5
:100D0000084380F3008870470020704710B5024800
:100D100000F004F810BD00000000C07F10B50C46C4
:100D20001107090F092904D00A290AD008290CD172
:100D300004E011460820FFF7D2FF06E0510606D571
:100D400001E0510601D50120C007214610BDD106A2
:100D500007D501010909CC084907000E0006044324
:100D600009E0410F20024907000A0143200E000656
:100D70001D22D14101430846E7E700000149182040
:100D8000ABBEFEE726000200704700000B4840881B
:100D9000002805D0FFE709494888401E4880FFE742
:100DA00006484088002804D1FFE704490020087065
:100DB000FFE70249002088807047C0468800002075
:100DC00080B584B002900298006803F07DFB002893
:100DD00035D0FFE70298006803F05BFB002805D1DF
:100DE000FFE70298006803F0C5FBFFE701F0AAF8EF
:100DF0000190FFE7029800688068400700281DD531
:100E0000FFE701F09FF80199401A032815D3FFE787
:100E1000029800688068400700280DD5FFE7029916
:100E2000886D102210438865029AD16D012001431C
:100E3000D16503A9087006E0FFE7DBE7FFE703A938
:100E400000200870FFE703A8007804B080BD80B5DB
:100E500084B002900298006803F01BFB0090029897
:100E6000006803F01FFB00284BD0FFE70098002824
:100E700047D1FFE7029800688068052108400128F3
:100E800009D1FFE70298006803F0C6FA02980168EA
:100E9000032008600CE00299886D102210438865D9
:100EA000029AD16D01200143D16503A908702CE09D
:100EB00001F048F80190FFE7029800688068C007D9
:100EC00000281DD0FFE701F03DF80199401A0328E2
:100ED00015D3FFE7029800688068C00700280DD08E
:100EE000FFE70299886D102210438865029AD16D40
:100EF00001200143D16503A9087006E0FFE7DBE7A5
:100F0000FFE703A900200870FFE703A8007804B0FA
:100F100080BD000080B584B002900020009002984F
:100F2000006803F0BFFA00286BD1FFE70298006861
:100F30008068384908420DD0FFE70299886D102279
:100F400010438865029AD16D01200143D16503A940
:100F500008705AE00298006803F06AFA2E4803F01D
:100F600081FA0002002811D5FFE72C4800682C49BF
:100F7000FFF730F9401C0090FFE70098002804D0EC
:100F8000FFE70098401E0090F7E7FFE70298407ED9
:100F9000012835D0FFE700F0D5FF0190FFE7029868
:100FA00000680068C007002829D1FFE702980068A0
:100FB00003F078FA002805D1FFE70298006803F0F3
:100FC00037FAFFE700F0BEFF0199401A032815D356
:100FD000FFE7029800680068C00700280DD1FFE70E
:100FE0000299886D102210438865029AD16D012004
:100FF0000143D16503A9087007E0FFE7CFE7FFE7EA
:10100000FFE703A900200870FFE703A8007804B0F9
:1010100080BDC0461700008008270140080000205E
:10102000400D030080B50120400300F0B3FD80BDFA
:1010300080B582B0EFF3108072B60190FFE7012215
:10104000D102024800F067FFF9E7C04600040050F3
:1010500080B59CB01A90199118A9002008701690BC
:101060001A9800690121C907884206D0FFE71A983B
:101070000069FB49884201D1FFE700E0FFE7FFE795
:101080001A985421405C012804D1FFE71BA90220D3
:10109000087008E21A99542201208854FFE7FFE7FC
:1010A0001A98006803F010FA002800D0E8E11998B7
:1010B0004068022800D193E11A9800690121C9070C
:1010C000884206D0FFE71A980069F949884207D19B
:1010D000FFE71A9800681999096803F009FA1AE1FC
:1010E0001A98016E199843681F2213400F229A40E4
:1010F0009143159100684003002808D1FFE7199833
:1011000000681F2189060840800E1490E7E01998B6
:101110000078C007002803D0FFE700201390DBE031
:10112000199800788007002803D5FFE70120129066
:10113000CFE0199800784007002803D5FFE7022088
:101140001190C3E0199800780007002803D5FFE745
:1011500003201090B7E019980078C006002803D546
:10116000FFE704200F90ABE0199800788006002874
:1011700003D5FFE705200E909FE019980078400600
:10118000002803D5FFE706200D9093E0199800781A
:101190000006002803D5FFE707200C9087E0199888
:1011A0004078C007002803D0FFE708200B907BE0C1
:1011B000199840788007002803D5FFE709200A9096
:1011C0006FE0199840784007002803D5FFE70A2010
:1011D000099063E0199840780007002803D5FFE7DD
:1011E0000B20089057E019984078C006002803D5D6
:1011F000FFE70C2007904BE0199840788006002804
:1012000003D5FFE70D2006903FE01998407840068F
:10121000002803D5FFE70E20059033E019984078A9
:101220000006002803D5FFE70F20049027E0199857
:101230008078C007002803D0FFE7102003901BE050
:10124000199880788007002803D5FFE711200290C5
:101250000FE0199801680120820411401220002338
:1012600000939142019001D0009801900198029062
:10127000FFE702980390FFE703980490FFE70498C4
:101280000590FFE705980690FFE706980790FFE7AF
:1012900007980890FFE708980990FFE709980A90D7
:1012A000FFE70A980B90FFE70B980C90FFE70C986C
:1012B0000D90FFE70D980E90FFE70E980F90FFE757
:1012C0000F981090FFE710981190FFE71198129077
:1012D000FFE712981390FFE713981490FFE7159813
:1012E0001499199A52681F231A40914008431A9979
:1012F0000866199840688008401C1A99C969884294
:1013000008D8FFE71A980068199A5168126803F024
:101310000DF9FFE7FFE71A980068199A11689268BB
:1013200003F036F91998C0780006002857D5FFE772
:10133000604803F097F81790199800685E49884252
:1013400021D1FFE717A88078000600281BD4FFE70B
:1013500017990120C0050143564803F02DF959485B
:1013600000685949FEF736FF01460C2048430C300F
:101370001690FFE71698002804D0FFE71698401E45
:101380001690F7E72AE0199800684C4988420ED178
:10139000FFE717A8C078C007002808D1FFE7179912
:1013A000012000060143434803F006F915E01998AF
:1013B0000068434988420ED1FFE717A880784006AD
:1013C000002808D4FFE71799012080050143394818
:1013D00003F0F2F800E0FFE7FFE7FFE7FFE74EE08A
:1013E0001A9800690121C907884206D0FFE71A98B8
:1013F00000692F49884207D1FFE71A9800681999B8
:10140000096803F083F8FFE71998C0780006002800
:1014100034D5FFE7274803F025F81790199800689E
:101420002549884208D1FFE717990120C00581436B
:10143000204803F0C1F820E0199800681F4988424D
:1014400008D1FFE71799012000068143F84803F00F
:10145000B3F811E019980068194988420AD101E0EF
:10146000040000801799012080058143F04803F0B3
:10147000A3F800E0FFE7FFE7FFE7FFE7FFE708E08B
:101480001A99886D20221043886518A901200870D8
:10149000FFE7FFE71A99542200208854FFE71898C5
:1014A0001BA90870FFE71BA800781CB080BDC046D0
:1014B0000400008008270140001000B0004000B880
:1014C000002000B408000020400D030081B000900F
:1014D00000980068006C01B07047000080B58AB0C9
:1014E000089007A9002008700690059003900898BE
:1014F000002804D1FFE709A9012008708BE10898B2
:101500003C21405C012801D1FFE7FFE70898006912
:10151000002809D0FFE708980069012149058842A1
:1015200001D1FFE7FFE7FFE70898806D00280AD1A7
:10153000FFE7089800F080F908990020C86508992D
:1015400054228854FFE70898006802F0B3FF00288F
:1015500016D1FFE70898006802F076FFB0480068EF
:10156000B049FEF737FE4000801C0390FFE7039868
:10157000002804D0FFE70398401E0390F7E7FFE739
:101580000898006802F096FF00280DD1FFE708993F
:10159000886D102210438865089AD16D012001439F
:1015A000D16507A90870FFE70898006802F08CFF72
:1015B00004900898806DC006002800D51EE10498AC
:1015C000002800D01AE10898806D0221084301210B
:1015D00009028843089988650898006802F062FF4C
:1015E000002800D0B0E008988168027E9203114381
:1015F000427ED2031143827E52031143026B531E7B
:101600009A4112031143C26811430291C07C000643
:10161000002807D5FFE7089800690121C90788431A
:10162000019003E0012040050190FFE70299019835
:10163000014308982C22805C40000143069808432F
:10164000069008982021405C012817D1FFE70898F0
:10165000807E002806D1FFE706980121090408438F
:1016600006900AE00899886D202210438865089941
:10167000C86D01221043C865FFE7FFE70898406A7C
:1016800000280BD0FFE70898416A07229201114019
:10169000806A0143069808430690FFE708980068AF
:1016A000C068614908400699084308990968C860FC
:1016B00008984168032292071140C06C01430598C5
:1016C0000843059008983C21405C012811D1FFE7B0
:1016D000089948680322920710400A6C10434A6C2C
:1016E0001043896C0843059908430121084305907C
:1016F000FFE70898006800694C49084005990843CD
:101700000899096808610898406803218907884298
:1017100019D0FFE70898406801218907884212D054
:10172000FFE7089840680121C90788420BD0FFE70E
:101730003F4908680F2293049843089A52681A4058
:1017400080180860FFE7FFE7089908684A6B0021E6
:1017500002F040FF089908688A6B364902F03AFFA8
:1017600008980069002808D1FFE708980168886A8E
:101770000F22D2431043886219E0089800690121C2
:101780004905884211D1FFE708980068806A0899E6
:10179000C8698000021F1C2002400F20C0439040F7
:1017A0000A6E10430968886200E0FFE7FFE70898C7
:1017B0000068002102F05FFE0899496B88420CD155
:1017C000FFE708990020C8650898806D012108434B
:1017D00002218843089988650FE00898806D1021E0
:1017E00008430221884308998865089AD16D012031
:1017F0000143D16507A90870FFE708E00899886DE3
:1018000010221043886507A901200870FFE7079898
:1018100009A90870FFE709A800780AB080BDC04692
:1018200008000020400D03000102DEFF02FCFF1F44
:101830000827014004FFFF0780B588B0079000200B
:101840000690059004900390029007980068144950
:10185000884223D1FFE7FFE712480268012109050A
:101860000A4302600068084001900198FFE7FFE723
:101870000D48026801210A43026000680840009098
:101880000098FFE7012002900320039000200490BD
:101890000520000702A900F0ABF9FFE708B080BD02
:1018A00000240140401002403410024080B586B050
:1018B0000490039104984069082803D1FFE70820A9
:1018C000019013E004980068C068C007002809D0A0
:1018D000FFE70499886D20221043886505A901203F
:1018E000087082E004200190FFE7FFE700F02AFB88
:1018F0000290FFE7049800680068019908422AD125
:10190000FFE70398401C002824D0FFE700F01AFBF3
:101910000299401A0399884204D8FFE703980028E7
:1019200017D1FFE7049800680068019908420FD1B9
:10193000FFE70499886D042210438865FFE7049946
:10194000542200208854FFE705A9032008704CE0CA
:10195000FFE7FFE7CEE70499886D012252021043AA
:1019600088650498006802F0B8FD00282FD0FFE7D2
:101970000498807E00282AD1FFE704980068006858
:101980000007002822D5FFE70498006802F09CFDBC
:1019900000280FD1FFE70498016848680C229043A3
:1019A00048600498806D0121084309028843049926
:1019B00088650AE00499886D20221043886504999F
:1019C000C86D01221043C865FFE7FFE7FFE70498F1
:1019D000007E002805D1FFE7049801680C2008600C
:1019E000FFE705A900200870FFE705A8007806B00A
:1019F00080BD000080B584B002900298006802F0BB
:101A000063FD00283ED1FFE7FFE702985421405CC8
:101A1000012804D1FFE703A9022008703AE00299E7
:101A2000542201208854FFE7FFE70298FFF772FA7B
:101A3000014601A80170007800281BD1FFE7029839
:101A4000806D012109020843144908400299886504
:101A500002990020C865029801681C200860FFE711
:101A60000299542200208854FFE70298006802F08F
:101A700075FD06E0FFE70299542200208854FFE735
:101A8000FFE703E001A902200870FFE7019803A91E
:101A90000870FFE703A8007804B080BDFEF1FFFFE7
:101AA00080B584B00290FFE702985421405C012881
:101AB00004D1FFE703A9022008702DE00299542207
:101AC00001208854FFE7FFE70298FFF779F9014604
:101AD00001A801700078002814D1FFE70298FFF7F1
:101AE000B6F9014601A801700078002809D1FFE786
:101AF0000298806D01210843090288430299886594
:101B0000FFE7FFE7FFE70299542200208854FFE730
:101B1000019803A90870FFE703A8007804B080BD0E
:101B200080B584B0039000F00DFA02900398019004
:101B30000198401C002806D0FFE709480178019869
:101B400040180190FFE7FFE700F0FCF90299401A06
:101B50000199884201D2FFE7F6E704B080BDC04694
:101B60000C00002081B001466846018000880121F8
:101B70004903884209D1FFE70549012008701E206A
:101B800048808888401C8880FFE701B07047C046C5
:101B90008800002080B582B001A908800F48006845
:101BA0000988084208D0FFE701A801880B4A1160A4
:101BB000008800F017F8FFE70948006801A90988C4
:101BC000084208D0FFE701A80188054A1160008893
:101BD000FFF7C8FFFFE702B080BDC0460C18024007
:101BE0001018024081B06946088001B070470000BB
:101BF0008AB00990089100200790FFE708980068D4
:101C00000799C840002800D147E108980068079A62
:101C100001219140084006900698002800D138E143
:101C20000898406803210840012807D0FFE708987A
:101C300040680321084002282CD1FFE709988068FA
:101C4000059007984000032181400598884305903E
:101C50000898C1680798400081400598084305909E
:101C600005980999886009984068059007980121AE
:101C700081400598884305900898406810210840E5
:101C8000010907988140059808430590059809992E
:101C90004860FFE70898406803210840032816D0F1
:101CA000FFE70998C068059007984000032181402C
:101CB00005988843059008988168079840008140FE
:101CC00005980843059005980999C860FFE70898AA
:101CD000406803210840022820D1FFE709980799AE
:101CE000C90889004018006A059007984007C00E8F
:101CF0000F2181400598884305900898016907984D
:101D00004007C00E81400598084305900598099941
:101D1000079AD208920089180862FFE709980068BC
:101D2000059007984100032002468A400599914397
:101D3000059108994968014007984000814005983D
:101D400008430590059809990860089880798007EC
:101D5000002800D19CE0079803218843504940584F
:101D6000059007988007C00E0F2181400598884391
:101D70000590099805210907884203D1FFE7002053
:101D8000049022E009984749884203D1FFE70120E7
:101D9000039017E009984449884203D1FFE70220E5
:101DA00002900CE00999414A0320052300939142D7
:101DB000019001D00098019001980290FFE70298ED
:101DC0000390FFE703980490FFE7049907988007C2
:101DD000C00E814005980843059005980799032295
:101DE00091432F4A8850324800680590069905981B
:101DF0008843059008988079C006002805D5FFE73C
:101E00000699059808430590FFE70598284908605A
:101E10002848006805900699059888430590089819
:101E200080798006002805D5FFE7069905980843C4
:101E30000590FFE705981F4908601F480068059056
:101E400006990598884305900898807980070028AE
:101E500005D5FFE70699059808430590FFE7059823
:101E6000154908601548006805900699059888434B
:101E7000059008988079C007002805D0FFE70699EB
:101E8000059808430590FFE705980C490860FFE7AF
:101E9000FFE70798401C0790B0E60AB07047C046BD
:101EA000601802400004005000080050000C005070
:101EB00000180240041802408418024080180240B2
:101EC00084B0009101460098039102A9088003980C
:101ED00000690988084204D0FFE701A901200870C1
:101EE00003E001A900200870FFE701A8007804B012
:101EF000704783B0029001A801800299496900915E
:101F0000009A018810460840000491434018029945
:101F1000886103B0704783B0029001A801806846D1
:101F200002700078002805D0FFE701A80088029918
:101F3000886104E001A8008802998862FFE703B085
:101F400070470000014800687047C046342E0020EA
:101F500010B583B00190009101984121405C202888
:101F600039D1FFE7FFE701984021405C012804D107
:101F7000FFE702A90220087031E001994022012008
:101F80008854FFE7FFE701994122242088540198F3
:101F9000016808680123984308600198016808688F
:101FA0001C03A0430860009C019801680868204356
:101FB00008600198016808681843086001992020AA
:101FC0008854FFE70199402200208854FFE702A9C6
:101FD0000020087003E002A902200870FFE702A8B1
:101FE000007803B010BD84B00290019102984121A5
:101FF000405C20283FD1FFE7FFE702984021405C8A
:10200000012804D1FFE703A90220087037E00299F4
:10201000402201208854FFE7FFE702994122242053
:102020008854029801680868012398430860029860
:1020300000680068009000980F2109028843009012
:1020400001980102009808430090009802990968DD
:102050000860029801680868184308600299202007
:102060008854FFE70299402200208854FFE703A923
:102070000020087003E003A902200870FFE703A80E
:10208000007804B07047000080B582B000900098DE
:10209000002804D1FFE701A9012008707EE0009824
:1020A0004121405C002808D1FFE700994022002030
:1020B0008854009800F0A6F9FFE7009941222420F7
:1020C00088540098016808680122904308600099CC
:1020D00048680F231B069843096808610098016847
:1020E0008868D203904388600098C068012808D1AE
:1020F000FFE7009988680122D203104309688860CD
:1021000007E00099886821229202104309688860DC
:10211000FFE70098C068022808D1FFE7009801682F
:1021200048680122D2021043486007E00098016825
:1021300048680122D20290434860FFE70098016896
:102140004868184A1043486000980168C86801222E
:10215000D3039843C860009908694B6918438B6999
:102160001B0218430968C8600099C8690B6A1843C4
:1021700009680860009801680868104308600099C1
:1021800000204864009A41232021D154009908631B
:1021900000994222885401A90870FFE701A800783D
:1021A00002B080BD00800002B0B58AB0044610982D
:1021B0000F980E9D089407AC218006A90A8005A9F6
:1021C0000B8004A9088008984121405C202800D099
:1021D0000EE10E98002805D0FFE704A8008800282B
:1021E00007D1FFE7089A01204102516409A908704C
:1021F00002E1FFE708984021405C012804D1FFE795
:1022000009A902200870F7E00899402201208854AB
:10221000FFE7FFE7FFF796FE039008980399009108
:102220000122D103192301F0C7FF002804D0FFE7E2
:1022300009A901200870DFE0089941222120885473
:1022400008994222402088540899002048640E9939
:10225000089A51620499089A518508994863089828
:1022600007A9098806AA128805AB1B88109C039D44
:102270000195009401F018FF00280AD0FFE7FFE75E
:102280000899402200208854FFE709A9012008701E
:10229000B2E00898408D000A00280FD0FFE70899A7
:1022A000FF200885089807A909882822825C002356
:1022B000009301231B0601F055FF0FE00898408DA5
:1022C00008990885089807A909882822825C0023B4
:1022D000009301235B0601F045FFFFE7FFE7089845
:1022E0001099039A02F019F8002804D0FFE709A911
:1022F0000120087080E00899486A007809688862BF
:102300000899486A401C48620899488D401E4885D3
:102310000899088D401E08850898408D00283AD0FD
:10232000FFE70898008D002835D1FFE70898109B3B
:10233000039900918021002201F03EFF002804D083
:10234000FFE709A90120087056E00898408D000AAF
:1023500000280FD0FFE70899FF200885089807A9F3
:1023600009882822825C0023009301231B0601F0C8
:10237000F9FE0FE00898408D08990885089807A98C
:1023800009882822825C0023009301235B0601F068
:10239000E9FEFFE7FFE7FFE70898408D00289ED1A0
:1023A000FFE708981099039A01F067FF002804D00E
:1023B000FFE709A9012008701EE0089801682020A5
:1023C000C86108990A6851680D4B19405160089915
:1023D000412288540899422200208854FFE7089936
:1023E000402200208854FFE709A90020087003E07C
:1023F00009A902200870FFE709A800780AB0B0BD5B
:1024000000E800FE80B590B00F90002000900E9084
:102410000D900C900B900A900990089007900690F0
:102420000590049003900F9800681D49884234D1AC
:10243000FFE7202003900020069003A800F01EF97B
:10244000002803D0FFE7FEF7F3FDFFE7FFE715489D
:10245000026801210A430260006808400290029865
:10246000FFE7032040020A9012200B9000200C90FE
:102470000D9006200E90052000070AA9FFF7B8FB73
:10248000FFE751480268012149050A4302600068DC
:10249000084001900198FFE7FFE710B080BDC046FB
:1024A0000054004034100240314802780249086864
:1024B000801808607047C046342E002080B582B076
:1024C00001A9002008700B4908680122120210437C
:1024D0000860032000F010F8002804D0FFE701A9ED
:1024E0000120087002E000F047F8FFE701A800783B
:1024F00002B080BD0020024080B584B0039002A9E4
:10250000002008701A480078002829D0FFE75848B2
:1025100000680190164801787D20C000FDF75AFE42
:1025200001460198FDF756FE01F01CFB002812D170
:10253000FFE70398032809D8FFE703990022D04357
:1025400000F04FF803980B49086003E002A901204E
:102550000870FFE703E002A901200870FFE703E02D
:1025600002A901200870FFE702A8007804B080BD2E
:102570000C0000201000002080B584B0FFE7114857
:10258000026801210A430260006808400390039832
:10259000FFE7FFE7C6480268012109070A43026016
:1025A0000068084002900298FFE70120C043032121
:1025B0000191002200F015F80198400201F0C4FAE0
:1025C00004B080BD401002403C10024080B582B093
:1025D000014601A801700021405603F037FD02B00A
:1025E00080BD80B584B0034603A8037002910192B8
:1025F00000214056029903F03FFD04B080BD000069
:1026000080B584B00290AB4908680322520290431F
:10261000029A1043086002980121490288421ED1A3
:10262000FFE713480168062048431249FDF7D2FD31
:10263000401C0190FFE710480068400500280DD5B8
:10264000FFE70198002804D0FFE70198401E0190A1
:1026500003E003A90320087005E0ECE7FFE703A906
:1026600000200870FFE703A8007804B080BDC046D2
:102670000800002040420F001470004080B588B070
:10268000079004A90020087003A9087007988078B3
:102690008007002800D49DE002A90020087084482B
:1026A0000068C000002810D4FFE7FFE780480268F8
:1026B000012109070A43026000680840019001985F
:1026C000FFE702A901200870FFE77A4908680122A4
:1026D000120210430860FFF735FC0590FFE77548CC
:1026E0000068C00500280CD4FFE7FFF72BFC059914
:1026F000401A032804D3FFE704A90320087000E070
:10270000EDE704A80078002853D1FFE76A48006885
:1027100003210902084006900698002817D0FFE719
:10272000069807998969884211D0FFE7F54908683A
:1027300003221202904306900868012212041043FB
:10274000086008689043086006980860FFE706A8DC
:102750000078C007002818D0FFE7FFF7F3FB0590CB
:10276000FFE7E8480068800700280DD4FFE7FFF77F
:10277000E9FB0599401AE749884204D3FFE704A919
:102780000320087000E0ECE7FFE704A800780028C9
:102790000AD1FFE7DB490868032212029043079A37
:1027A00092691043086003E0049803A90870FFE7EA
:1027B00003E0049803A90870FFE702A80078012845
:1027C00007D1FFE73A4908680122120790430860E1
:1027D000FFE7FFE707980078C007002809D0FFE768
:1027E0003649086803229043079A526810430860EC
:1027F000FFE7079800788007002809D5FFE72F49F1
:1028000008680C229043079A926810430860FFE71B
:1028100007980078800600280AD5FFE7274908684E
:10282000032212039043079AD26810430860FFE71F
:10283000079840784006002818D5FFE71F49086828
:10284000032292079043079A526910430860079841
:10285000406901218907884207D1FFE718490868C4
:102860000122120410430860FFE7FFE70798407851
:102870000007002818D5FFE71049086803229203D3
:102880009043079A12691043086007980069012174
:102890008903884207D1FFE7F04908680122120442
:1028A00010430860FFE7FFE703A8007808B080BD89
:1028B0003C100240007000405C1002405410024086
:1028C0000C10024080B584B002900191029800285B
:1028D00004D1FFE703A9012008700CE101988849A1
:1028E000096807221140884221D9FFE78449086816
:1028F00007229043019A10430860FFF723FB0090E2
:10290000FFE77F48006807210840019988420DD001
:10291000FFE7FFF717FB0099401A7E49884204D36E
:10292000FFE703A903200870E5E0EAE7FFE7029864
:1029300000788007002817D5FFE702980078400745
:10294000002807D5FFE7C44908680722120310438F
:102950000860FFE7C04908680F2212029043029AFC
:10296000926810430860FFE702980078C0070028CB
:1029700072D0FFE70298406801280BD1FFE7BA4800
:1029800000688003002804D4FFE703A90120087031
:10299000B1E03DE00298406802280BD1FFE7B24861
:1029A00000688001002804D4FFE703A90120087013
:1029B000A1E02CE00298406800280BD1FFE7AA486C
:1029C00000684005002804D4FFE703A9012008702F
:1029D00091E01BE00298406803280BD1FFE74A48CA
:1029E00000688007002804D4FFE703A901200870CD
:1029F00081E00AE0434800688007002804D4FFE72C
:102A000003A90120087076E0FFE7FFE7FFE7FFE793
:102A10009149086807229043029A5268104308605F
:102A2000FFF790FA0090FFE78B48006838210840D4
:102A300002994968C90088420DD0FFE7FFF782FA82
:102A40000099401A3349884204D3FFE703A90320C1
:102A5000087050E0E8E7FFE7019829490968072274
:102A60001140884221D2FFE7254908680722904398
:102A7000019A10430860FFF765FA0090FFE72048CD
:102A8000006807210840019988420DD0FFE7FFF751
:102A900059FA0099401A1F49884204D3FFE703A955
:102AA0000320087027E0EAE7FFE702980078400774
:102AB00000280AD5FFE768490868072212039043F7
:102AC000029AD26810430860FFE700F03FF86249BD
:102AD00009680F22120211408A090C4989581F22E5
:102AE0001140C8400E49086009480068FFF704FD1E
:102AF00003A90870FFE703A8007804B080BDC046B2
:102B0000002002405C10024060100240187400086F
:102B10001000002089130000014800687047C0467B
:102B20000800002080B582B0FFF7F6FF019001F0A9
:102B300065FD01460198090B8A00034989581F2247
:102B40001140C84002B080BD5874000880B588B0FC
:102B5000414800688006400F00280FD1FFE7424837
:102B600000680721C9020840C10A0120884003907B
:102B700003993C48FDF72EFB029069E03648006857
:102B800038210840082803D1FFE7354802905EE06D
:102B9000314800683821084010283CD1FFE72F4811
:102BA0000168032211400691006870210840000965
:102BB000401C049006980190022812D0FFE701986B
:102BC00003280FD1FFE704992548FDF703FB0146D1
:102BD000224800687F2212021040000A48430790F2
:102BE0000EE0FFE704991F48FDF7F4FA01461B4881
:102BF00000687F2212021040000A48430790FFE756
:102C000016480068400F401C059007980599FDF78D
:102C1000E1FA02901AE010480068382108402028A4
:102C200004D1FFE70120C00302900EE00A480068CB
:102C300038210840182804D1FFE77D2000020290C7
:102C400002E000200290FFE7FFE7FFE7FFE7FFE772
:102C5000029808B080BDC046081002400C10024027
:102C6000001BB7000024F4000010024010B588B02B
:102C700006900698002804D1FFE707A901200870F4
:102C80002AE306980078C007002800D188E0FC48B5
:102C90000068382108400490FA4800680321084081
:102CA00003900498102804D1FFE70398032804D068
:102CB000FFE70498082810D1FFE7F8480068800370
:102CC000002809D5FFE706984068002804D1FFE7EF
:102CD00007A901200870FFE261E0FFE7069840685D
:102CE00001210904884207D1FFE7EC490868012265
:102CF0001204104308601DE006984068052109048D
:102D000088420BD1FFE7E549086801229304184384
:102D1000086008681204104308600AE0DF49086888
:102D200001221304984308600868920490430860E5
:102D3000FFE7FFE7FFE706984068002817D0FFE7A6
:102D4000FFF700F90590FFE7D448006880030028EA
:102D50000CD4FFE7FFF7F6F80599401A652804D36D
:102D6000FFE707A903200870B6E2EDE716E0FFF7DA
:102D7000E9F80590FFE7C9480068800300280CD5F2
:102D8000FFE7FFF7DFF80599401A652804D3FFE74E
:102D900007A9032008709FE2EDE7FFE7FFE7FFE7E1
:102DA000069800788007002800D4A3E0B4480068A3
:102DB000382108400490B34800680321084003907C
:102DC0000498102804D1FFE70398022804D0FFE7F5
:102DD000049800283BD1FFE7B04800684005002870
:102DE00009D5FFE70698C068002804D1FFE707A9C6
:102DF0000120087070E2AA4908687F2212029043FD
:102E0000069A52691202104308600498002811D1F2
:102E1000FFE7A24802680721C9028A43069B1B6993
:102E20001A43026000680840C10A9E48C8409E4993
:102E30000860FFE79D480068FFF75EFB002804D0AC
:102E4000FFE707A90120087046E2FFE751E0069876
:102E5000C06800282FD0FFE7904908680722D202F7
:102E60009043069A12691043086008680122120212
:102E700010430860FFF766F80590FFE78748006891
:102E8000400500280CD4FFE7FFF75CF80599401ACD
:102E9000032804D3FFE707A9032008701CE2EDE72D
:102EA0007F4908687F2212029043069A52691202F3
:102EB000104308601CE0794908680122120290431F
:102EC0000860FFF73FF80590FFE774480068400589
:102ED00000280CD5FFE7FFF735F80599401A0328BD
:102EE00004D3FFE707A903200870F5E1EDE7FFE74A
:102EF000FFE7FFE7069800780007002856D5FFE7B0
:102F0000F748006838210840182810D1FFE7F74833
:102F100000688007002809D5FFE706988069002827
:102F200004D1FFE707A901200870D5E13DE006982C
:102F3000806900281CD0FFE7EC4908680122104393
:102F40000860FEF7FFFF0590FFE7E848006880078C
:102F500000280CD4FFE7FEF7F5FF0599401A032877
:102F600004D3FFE707A903200870B5E1EDE71BE0F4
:102F7000DE490868012290430860FEF7E3FF0590F0
:102F8000FFE7DA480068800700280CD5FFE7FEF766
:102F9000D9FF0599401A032804D3FFE707A90320A6
:102FA000087099E1EDE7FFE7FFE7FFE70698007893
:102FB0004007002800D4CAE002A900200870C848D1
:102FC000006838210840202810D1FFE7CA4800686F
:102FD0008007002809D5FFE706988068002804D1FB
:102FE000FFE707A90120087076E1AFE0C04800685C
:102FF000C000002810D4FFE7FFE7BD4802680121A8
:1030000009070A4302600068084001900198FFE741
:1030100002A901200870FFE7B6480068C005002833
:103020001DD4FFE7B349086801221202104308606B
:10303000FEF788FF0590FFE7AE480068C00500284E
:103040000CD4FFE7FEF77EFF0599401A032804D34E
:10305000FFE707A9032008703EE1EDE7FFE7FFE780
:1030600006988068012806D1FFE7A3490868012275
:103070001043086027E006988068052818D103E00F
:10308000081002400C1002409B49086804221043BB
:103090000860086801221043086013E00010024035
:1030A000041002400024F40008000020100000205A
:1030B00091490868012290430860086804229043FF
:1030C0000860FFE7FFE7FFE706988068002818D050
:1030D000FFE7FEF737FF0590FFE7874800688007A6
:1030E00000280DD4FFE7FEF72DFF0599401A83490C
:1030F000884204D3FFE707A903200870ECE0ECE75F
:1031000017E0FEF71FFF0590FFE77B480068800788
:1031100000280DD5FFE7FEF715FF0599401A7749FE
:10312000884204D3FFE707A903200870D4E0ECE746
:10313000FFE702A80078012807D1FFE76C4908687B
:103140000122120790430860FFE7FFE7FFE70698B8
:10315000C069002800D1BBE0614800683821084000
:10316000102876D0FFE70698C06902284ED1FFE705
:103170005D4908680122120690430860FEF7E2FEEE
:103180000590FFE758480068800100280CD5FFE74C
:10319000FEF7D8FE0599401A032804D3FFE707A9D4
:1031A0000320087098E0EDE74E490868554A104042
:1031B000069B1A6A5C6A22439C6A24022243DC6AE8
:1031C00022431B6B1A4310430860474B18680122C7
:1031D0001406204318600868120710430860FEF7C1
:1031E000B1FE0590FFE740480068800100280CD43C
:1031F000FFE7FEF7A7FE0599401A032804D3FFE76F
:1032000007A90320087067E0EDE721E03649086868
:103210000122120690430860FEF794FE0590FFE736
:1032200031480068800100280CD5FFE7FEF78AFED0
:103230000599401A032804D3FFE707A90320087063
:103240004AE0EDE7274908682D4A10400860FFE78B
:103250003DE00698C069012804D1FFE707A90120D5
:10326000087039E01F480068039003980321084064
:103270000699096A884224D1FFE703987021084023
:103280000699496A88421CD1FFE703987F21090209
:1032900008400699896A0902884212D1FFE703981B
:1032A0001F21490408400699C96A884209D1FFE7ED
:1032B00003980721490708400699096B884204D002
:1032C000FFE707A90120087006E0FFE7FFE7FFE737
:1032D00007A900200870FFE707A8007808B010BD14
:1032E000081002400C100240001002406010024022
:1032F0003C100240007000405C1002408913000046
:10330000FCFFFEEF8C80C11F10B584B002900298C4
:10331000002804D1FFE703A9012008709CE002986F
:10332000406A00280DD1FFE70298406841218900DA
:10333000884201D1FFE703E002990020C861FFE75E
:1033400005E002990020086102994861FFE70299AF
:103350000020886202985D21405C002808D1FFE7C8
:1033600002995C2200208854029800F07BF8FFE765
:1033700002995D2202208854029801680868402260
:10338000904308600298C0683549884203D3FFE73C
:103390000020019003E0012000030190FFE7029864
:1033A000C0680F21090288420BD0FFE70298C0686D
:1033B00007210902884204D0FFE7029900208862B1
:1033C000FFE7029A00925068412189000840916805
:1033D00021239B021940401811690223194040180B
:1033E000536901210B40C01893694C022340C01857
:1033F000D36938242340C018136A80242340C0189E
:10340000936A4C032340184312681060029A508B51
:1034100004231840536A10242340C018536B082417
:103420002340C018D3680F2424022340C018019BF6
:103430000C032340C0181268506002980268D069DB
:10344000CB029843D061029A00201066029A5D2355
:10345000D15403A90870FFE703A8007804B010BD99
:103460000107000080B588B0079000200690059005
:10347000049003900290079800681549884225D16E
:10348000FFE7FFE713480268012109030A430260CE
:103490000068084001900198FFE7FFE70E480268C6
:1034A00001210A4302600068084000900098FFE78D
:1034B0004620029002200390002004900590069080
:1034C0000520000702A9FEF793FBFFE708B080BDC7
:1034D00000300140401002403410024010B58AB064
:1034E0000890079106A80280059303A900200870A0
:1034F000FFE708985C21405C012804D1FFE709A997
:10350000022008703EE108995C2201208854FFE700
:10351000FFE7FEF717FD0490069802A908800898B7
:103520005D21405C012804D0FFE703A90220087058
:103530001EE10798002805D0FFE706A800880028AC
:1035400004D1FFE703A90120087011E108995D2269
:10355000032088540899002008660799089A916307
:103560000699089A91870699089AD187089908645C
:103570000899442288520899462288520899086579
:103580000899C864089880680121C90388420ED14F
:10359000FFE708980168086840229043086008988F
:1035A000016808680122920310430860FFE7089849
:1035B0000068006840210840402807D0FFE70898CD
:1035C00001680868402210430860FFE70898C06857
:1035D0006E4988424FD3FFE708984068002805D01D
:1035E000FFE702A8008801280ED1FFE70899886B41
:1035F00000880968C8600899886B801C88630899EE
:10360000C88F401EC887FFE7FFE70898C08F0028D3
:1036100030D0FFE7089800688068800700280ED542
:10362000FFE70899886B00880968C8600899886B6B
:10363000801C88630899C88F401EC88719E0FEF770
:1036400081FC0499401A0599884205D3FFE7059843
:10365000401C002804D1FFE70598002808D1FFE7A7
:1036600003A90320087008995D22012088547FE097
:10367000FFE7CAE74EE008984068002805D0FFE75A
:1036800002A8008801280ED1FFE70899886B00780E
:10369000096808730899886B401C88630899C88F6B
:1036A000401EC887FFE7FFE70898C08F002830D08A
:1036B000FFE7089800688068800700280ED5FFE7BC
:1036C0000899886B0078096808730899886B401C12
:1036D00088630899C88F401EC88719E0FEF732FC3E
:1036E0000499401A0599884205D3FFE70598401CC4
:1036F000002804D1FFE70598002808D1FFE703A9B7
:103700000320087008995D220120885430E0FFE70B
:10371000CAE7FFE708980599049A01F0B9FD002867
:1037200004D0FFE7089920200866FFE70898806822
:1037300000280ED1FFE7FFE70020019008980068FD
:10374000C068019008980068806801900198FFE7C0
:10375000FFE70898006E002804D0FFE703A90120C6
:10376000087004E008995D2201208854FFE7FFE714
:10377000FFE708995C2200208854FFE7039809A915
:103780000870FFE709A800780AB010BD0107000023
:1037900010B58EB0109C0C900B910A9209A8038072
:1037A0000120049003A900200870FFE70C985C2119
:1037B000405C012804D1FFE70DA902200870BDE19B
:1037C0000C995C2201208854FFE7FFE7FEF7BAFB63
:1037D00005900C985D21415C06A801700C99496820
:1037E0000791099908AA11800078012814D0FFE7F1
:1037F00007984121890088420AD1FFE70C98806828
:10380000002805D1FFE706A80078042804D0FFE7C8
:1038100003A90220087087E10B98002809D0FFE770
:103820000A98002805D0FFE709A80088002804D1DD
:10383000FFE703A90120087076E10C985D21405C48
:10384000042805D0FFE70C995D2205208854FFE786
:103850000C99002008660A990C9A116409990C9A2F
:103860004623D15209990C9A4423D1520B990C9AB0
:10387000916309990C9AD18709990C9A91870C99AF
:10388000C8640C9908650C98C068AE49884208D392
:10389000FFE70C98016848680122120390434860D2
:1038A00007E00C9801684868012212031043486041
:1038B000FFE70C980068006840210840402807D0C6
:1038C000FFE70C9801680868402210430860FFE792
:1038D0000C98C0689B49884200D281E00C984068EF
:1038E000002805D0FFE708A8008801280ED1FFE7CF
:1038F0000C99886B00880968C8600C99886B801CDB
:1039000088630C99C88F401EC887FFE7FFE70C98B3
:10391000C18F01200029029007D1FFE70C984621B2
:10392000405A411E88410290FFE70298C0070028D4
:1039300055D0FFE70C98006880688007002819D5EB
:10394000FFE70C98C08F002814D0FFE704980128E7
:1039500010D1FFE70C99886B00880968C8600C9942
:10396000886B801C88630C99C88F401EC887002014
:103970000490FFE70C9800688068C007002818D002
:10398000FFE70C984621405A002812D0FFE70C9818
:103990000068C0680C99096C08800C99086C801C40
:1039A00008640C994622885A401E885201200490CF
:1039B000FFE7FEF7C7FA0599401A109988420DD320
:1039C000FFE71098401C002808D0FFE703A9032058
:1039D00008700C995D2201208854A5E097E785E0E6
:1039E0000C984068002805D0FFE708A80088012847
:1039F0000ED1FFE70C99886B0078096808730C9961
:103A0000886B401C88630C99C88F401EC887FFE7ED
:103A1000FFE70C98C18F01200029019007D1FFE733
:103A20000C984621405A411E88410190FFE70198B9
:103A3000C007002859D0FFE70C980068806880070D
:103A4000002819D5FFE70C98C08F002814D0FFE795
:103A50000498012810D1FFE70C99886B0078096859
:103A600008730C99886B401C88630C99C88F401EA2
:103A7000C88700200490FFE70C9800688068C007A2
:103A8000002818D0FFE70C984621405A002812D091
:103A9000FFE70C980068007B0C99096C08700C9982
:103AA000086C401C08640C994622885A401E8852B3
:103AB00001200490FFE7FEF745FA0599401A109996
:103AC000884205D3FFE71098401C002804D1FFE787
:103AD0001098002808D1FFE703A9032008700C996B
:103AE0005D22012088541FE093E7FFE70C981099AE
:103AF000059A01F0CDFB002807D0FFE703A90120BC
:103B000008700C9920200866FFE70C98006E0028CA
:103B100004D0FFE703A90120087004E00C995D229E
:103B200001208854FFE7FFE7FFE70C995C220020A3
:103B30008854FFE703980DA90870FFE70DA80078E7
:103B40000EB010BD0107000081B000900449086864
:103B5000032252029043009A1043086001B070475C
:103B60000000014080B582B00190019801F0A8FDED
:103B700002B080BD83B00190FFE701988421405CD2
:103B8000012804D1FFE702A9022008702BE0019967
:103B9000842201208854FFE7FFE70199882224202E
:103BA00088500198006800680090019803681868C0
:103BB00001218843186000984907884300900199C3
:103BC0000020486600980199096808600199202042
:103BD0008850FFE70199842200208854FFE702A95A
:103BE00000200870FFE702A8007803B0704780B596
:103BF00086B004900391FFE704988421405C01287B
:103C000004D1FFE705A90220087034E0049984225A
:103C100001208854FFE7FFE70499882201922420BD
:103C20008850049800680068029004980168086849
:103C300001229043086004980068806807214906C3
:103C4000884303990843049909688860049801F03F
:103C5000A9FD019A02980499096808600499202036
:103C60008850FFE70499842200208854FFE705A9C3
:103C700000200870FFE705A8007806B080BD80B579
:103C800086B004900391FFE704988421405C0128EA
:103C900004D1FFE705A90220087034E004998422CA
:103CA00001208854FFE7FFE704998822019224202D
:103CB00088500498006800680290049801680868B9
:103CC0000122904308600498006880680721490732
:103CD000884303990843049909688860049801F0AF
:103CE00061FD019A029804990968086004992020EE
:103CF0008850FFE70499842200208854FFE705A933
:103D000000200870FFE705A8007806B080BD80B5E8
:103D100082B000900098002804D1FFE701A901209B
:103D200008704AE000988069002801D0FFE700E0B1
:103D3000FFE7009888214058002808D1FFE7009944
:103D4000842200208854009800F03CF8FFE7009996
:103D50008822242088500098016808680122904336
:103D600008600098806A002804D0FFE7009801F0FE
:103D700063FDFFE7009801F019FF012804D1FFE778
:103D800001A90120087018E000980168486809221C
:103D9000D202904348600098016888682A229043C4
:103DA0008860009801680868012210430860009844
:103DB00001F0F0FD01A90870FFE701A8007802B04A
:103DC00080BD000080B590B00F90002000900E9054
:103DD0000D900C900B900A90099008900790069017
:103DE0000590049003900F9800681C49884232D1D6
:103DF000FFE7012003900020049003A8FEF73EFC9B
:103E0000002803D0FFE7FDF713F9FFE7FFE71448A9
:103E10000268012189030A43026000680840029099
:103E20000298FFE7FFE70F48026804210A43026097
:103E30000068084001900198FFE730200A900220B6
:103E40000B9000200C900D9001200E9006480AA9BE
:103E5000FDF7CEFEFFE710B080BDC0460038014040
:103E6000401002403410024000080050FFE7FEE717
:103E700081B00090009800688069022108404008E5
:103E8000002805D0FFE70098016800208862FFE75E
:103E9000009800688069C007002807D1FFE70098F4
:103EA00001688869012210438861FFE701B070470B
:103EB00080B58AB009900891079206A90020087081
:103EC000099909688969059104900798039005A8E4
:103ED0000078C006002800D484E00998016810200A
:103EE000C861FFE7099800688069202108404109FE
:103EF00000200029009006D1FFE706A80078414283
:103F000048410090FFE70098C007002858D0FFE71D
:103F10000898401C002852D0FFE7FEF713F80399D9
:103F2000401A0899884204D8FFE70898002845D12C
:103F3000FFE7099800684068012189030840029062
:103F400009984221405C01A90870099800688069BD
:103F500080B2C00B002816D0FFE702980121890328
:103F6000884210D0FFE701A8007820280BD0FFE797
:103F70000998016848680122920310434860FDF7E0
:103F8000E1FF0390FFE7FFE70998006880692021BF
:103F900008404009002810D1FFE7FDF7D3FF03993F
:103FA000401A1A2808D3FFE70498202108430490F8
:103FB00006A90120087000E0E6E7FFE7FFE791E7C8
:103FC00006A80078002805D1FFE70998016820209D
:103FD000C861FFE7049804210843049006A9012062
:103FE0000870FFE7099800688069059005A8407887
:103FF000C00700280BD0FFE704990120014304917A
:1040000009990A680102D16106A90870FFE705A8AD
:104010004078400700280CD5FFE7049808210843A2
:1040200004900998026801208102D16106A90870F4
:10403000FFE705A84078800700280CD5FFE7049823
:104040000221084304900998026801204102D161CD
:1040500006A90870FFE706A8007800281DD0FFE732
:104060000998FFF705FF0998016848680D4A104054
:104070004860049A0999486C1043486409994122A0
:10408000202088540999422200208854FFE709998A
:10409000402200208854FFE7FFE706A800780AB016
:1040A00080BDC04600E800FE10B588B00291014610
:1040B00002980B9C0A9C069105A9088004A802801E
:1040C00003AA1380069809881278254B00930123D0
:1040D0001B0600F047F806980A990B9A00F01DF9A4
:1040E000002804D0FFE707A90120087034E003A8E6
:1040F0000088012806D1FFE704A80078069909681E
:10410000886216E004A840780699096888620698D3
:104110000A990B9A00F001F9002804D0FFE707A9DB
:104120000120087018E004A80078069909688862E0
:10413000FFE706980A9B0B9900918021002200F06E
:104140003BF8002804D0FFE707A90120087003E02E
:1041500007A900200870FFE707A8007808B010BD85
:104160000020008010B585B0079C049003A8018052
:1041700002A90A70019300880D4A104009780904C9
:10418000401801990843079908430121C90788434A
:1041900000900498006840680799490D88430549D4
:1041A00008400099084304990968486005B010BDAB
:1041B000FF030000009C00FC10B586B0089C049032
:1041C000039102A802700193FFE7049800688069D8
:1041D00003990840401A4142484102A9097888429F
:1041E00043D1FFE704980199089AFFF761FE002880
:1041F00004D0FFE705A9012008703AE00198401CAF
:10420000002831D0FFE7FDF79DFE0899401A01997B
:10421000884204D8FFE70198002824D1FFE70498DA
:104220000068806903990840401A4142484102A948
:104230000978884216D1FFE7049A516C2020014387
:1042400051640499412288540499422200208854E0
:10425000FFE70499402200208854FFE705A90120C8
:10426000087006E0FFE7FFE7AFE705A90020087048
:10427000FFE705A8007806B010BD80B584B00290B5
:1042800001910092FFE702980068806920210840B0
:104290004009002839D1FFE702980199009AFFF7F9
:1042A00007FE002804D0FFE703A90120087030E0D2
:1042B000FDF748FE0099401A0199884204D8FFE7AB
:1042C0000198002820D1FFE702980068806920212A
:1042D00008404009002816D1FFE7029A516C2020BF
:1042E00001435164029941228854029942220020DC
:1042F0008854FFE70299402200208854FFE703A971
:104300000120087005E0FFE7BDE703A90020087061
:10431000FFE703A8007804B080BD80B584B00290A8
:1043200001910092FFE7029800688069022108402D
:10433000400800283FD1FFE702980199009AFFF753
:10434000B7FD002804D0FFE703A90120087036E07C
:104350000198401C00282DD0FFE7FDF7F3FD0099E0
:10436000401A0199884204D8FFE70198002820D11B
:10437000FFE7029800688069022108404008002891
:1043800016D1FFE7029A516C202001435164029933
:10439000412288540299422200208854FFE7029962
:1043A000402200208854FFE703A90120087006E09E
:1043B000FFE7FFE7B7E703A900200870FFE703A8BE
:1043C000007804B080BD000080B586B03220039034
:1043D00001900420049000900A480B4905910522A1
:1043E0001207082300F0CEFB039A04980599019266
:1043F0000090064801221303054A00F0C3FB06B0F3
:1044000080BDC046680600207005002078060020A8
:10441000000800507047000081B00090009880684C
:104420005A490840801C0099886001B07047C04616
:1044300081B000900098806854490840401C009961
:10444000886001B07047C04681B0009000988068D5
:104450000121090708434D4908400099886001B0CF
:104460007047C04681B00090009800680721890518
:10447000084001B0704782B00190009101984069F6
:1044800000990422114007228A401040C84002B01F
:10449000704781B000900098806802210840400871
:1044A00001B0704781B000900098806801210840F9
:1044B00001B0704781B00090009880680121090721
:1044C0000840000F01B0704781B0009000988068EC
:1044D00004210840800801B0704781B00090009826
:1044E000C0680321890208404142484101B0704739
:1044F00082B001900091009A034802400199886AB5
:104500001043886202B07047FFFF070082B001903D
:1045100000910098C243044802430199886A104000
:10452000886202B07047C0460000F8FF83B0029076
:10453000019100920298806A019A1F210A400F237C
:1045400019469140884300999B061940890E914075
:1045500008430299886203B07047000081B0009060
:104560000098806809490840001D0099886001B0E2
:104570007047C04681B000900098806803490840A9
:1045800010300099886001B07047C046E8FFFF7F97
:1045900083B00290019100920298406901990A0249
:1045A000904300991140034A114008430299486121
:1045B00003B0704700FFFF0782B00190009101989F
:1045C000006807218905884300990843019908601C
:1045D00002B0704783B00290019100920298406946
:1045E000019A04210A400721914088430099914093
:1045F00008430299486103B0704700000248006810
:1046000007210903084070470810024010B586B022
:10461000002101910591049103911A4802901A4AD0
:10462000026001239A074260021D8160C16001613E
:1046300004244461017641768176C3611177416239
:1046400081622C2281540163416381633C22815445
:10465000C164FCF743FF002803D0FFE7FCF7E8FC48
:10466000FFE701200390002004900590054803A96E
:10467000FCF7EEFC002803D0FFE7FCF7D9FCFFE7CE
:1046800006B010BDB80400200024014070B5A0B0F1
:10469000254A1BA8014618CA18C138CA38C10021CA
:1046A000019101F072FD0199204A1060204B16A87B
:1046B000024630CB30C270CB70C201F066FD01996A
:1046C0001C4A10601C4B11A8024630CB30C270CB84
:1046D00070C201F05AFD0199184A1060184B0CA8DD
:1046E000024630CB30C270CB70C201F04EFD019952
:1046F000144A1060144B07A8024630CB30C270CB6E
:1047000070C201F042FD0199104A1060104B02A8DE
:10471000024630CB30C270CB70C201F036FD0D497D
:10472000086020B070BDC046A0730008780000206B
:10473000DC73000884000020F0730008A000002053
:1047400004740008AC000020C8730008800000203A
:10475000B47300087C000020B0B596B0002015901E
:104760001490139012901190FFE76A480268042198
:104770000A4302600068084010901098FFE7FFE7C6
:104780006448026820210A430260006808400F90D4
:104790000F98FFE7FFE75F48026801210A430260C4
:1047A000006808400E900E98FFE7FFE7594802683E
:1047B00002210A430260006808400D900D98FFE74F
:1047C000FFE75448026808210A4302600068084075
:1047D0000C900C98FFE703200990010300914E48CC
:1047E000079000220A92FDF796FB0A9A052000071F
:1047F000029008210191FDF78EFB0A9A4748059027
:104800004749FDF788FB0A9A464803906021FDF767
:1048100082FB07980A99444A11921291022104914D
:10482000139111A90891FDF7E3F9009B07980899E6
:104830000A9A119301240694129413921492FDF78C
:10484000D7F9019B029808990A9A1193129413922E
:104850001492FDF7CDF9059808990A9A334B1193F4
:10486000129413921492FDF7C3F9059808990A9AC5
:104870006303119321231B0412931392FDF7B8F9DC
:104880000398049A08990A9B1E2511951293139276
:10489000FDF7AEF90398049B08990A9A2025119513
:1048A000129413931492FDF7A3F9039808990A9AA6
:1048B00040231193129413921492FDF799F90598DD
:1048C00008990A9A2823119312921392FDF790F9EE
:1048D000049B059808990A9A2D252D01119512948B
:1048E00013931492FDF784F9069B079808990A9A86
:1048F0009B02119312921392FDF77AF909990A9A81
:1049000007200B90FDF76DFE0B98FDF75FFE16B0CC
:10491000B0BDC046341002400008005000040050F2
:10492000D11B0000000C005001080000011900001C
:1049300080B582B016480190164901601649416061
:10494000002181600122C260016141618161C16118
:104950000162FDF799FB002803D0FFE7FCF768FB35
:10496000FFE70B480021FDF7F3FA002803D0FFE72B
:10497000FCF75EFBFFE706480021FDF734FB00284B
:1049800003D0FFE7FCF754FBFFE702B080BDC04651
:104990001C05002000540040BC7D701080B582B022
:1049A00011480190114901604121890041600021B5
:1049B000816007221302C3600161012343615B022E
:1049C00083613023C361016241628162C26201631B
:1049D0004163FEF799FC002803D0FFE7FCF728FBB2
:1049E000FFE702B080BDC0467005002000300140E6
:1049F00080B582B01C4800901C490160E121490249
:104A00004160002101918160C16001610C2242611D
:104A10008161C161016241628162FFF778F900281A
:104A200003D0FFE7FCF704FBFFE70F480021FFF787
:104A300026F9002803D0FFE7FCF7FAFAFFE70A4857
:104A40000021FFF7D4F8002803D0FFE7FCF7F0FAC5
:104A5000FFE70548FFF78EF8002803D0FFE7FCF7D3
:104A6000E7FAFFE702B080BDD4050020003801401E
:104A700080B588B007900691059206980390059935
:104A800001917F20C00502F003FC01990290079874
:104A900002F0A6FB029902460398049202F0A0FBE2
:104AA000049902F02DFB08B080BD80B584B003905E
:104AB00002A8009001700398002100F001F901465E
:104AC000009801AA11700078002806D0FFE701982D
:104AD0004021084301A9087005E001A90878BF2218
:104AE00010400870FFE7039801A90A78002100F040
:104AF000C1FA04B080BD80B584B003900398002152
:104B0000019100F0DDF8019902AA10701078D3230A
:104B100018401070029802231843107003981278FE
:104B200000F0A8FA04B080BD80B582B00190019871
:104B300001F011FB02B080BD80B584B0039002A8E3
:104B4000009001700398002100F0BAF80146009827
:104B500001AA11700078002806D0FFE70198802193
:104B6000084301A9087005E001A908787F221040D8
:104B70000870FFE7039801A90A78002100F07AFA8B
:104B800004B080BD70B588B00C4605460D980C99F0
:104B900007950694059204AA138003AA117002A92E
:104BA00008700798007B012804D1FFE70120FFF778
:104BB000BBFFFFE7079801220273069807998860F8
:104BC00005980799086004980799888007990868EC
:104BD0008988FDF7A0F96420FFF7A6FF079803A9CD
:104BE000097800F021FA079800210191FFF7A4FF4E
:104BF00001990798FFF759FF0798FFF77CFF07987F
:104C000002A9097800F0EAF908B070BD80B582B059
:104C100001900198072100F053F8014668460170A1
:104C2000007802B080BD80B586B005900598FFF78A
:104C300062FF059801210291FFF77EFF0A20FFF72E
:104C400073FF05980021019100F03AF8019904AA38
:104C5000107004982023184310700598127800F003
:104C600009FA4120FFF760FF0299059800F009F862
:104C7000014603A80180018849080180008806B028
:104C800080BD80B586B0009101460098059104A9C9
:104C9000087003AA01920020108005980978022369
:104CA00000F023F801990A7802A80280029A120201
:104CB00002804A78029911430180008806B080BDC5
:104CC00080B586B0019101460198059104A908704C
:104CD00003AA02920020107005980978012300F0C1
:104CE00004F80298007806B080BD10B588B0019134
:104CF00001460198079106A902910870059204A83F
:104D0000037003AAFF20107008787F2210400870FB
:104D10000799086889880022FDF7FDF8029907982D
:104D2000806801226423FEF7D9FBFFE704AA10780C
:104D3000411E117000280DD0FFE707988068059A82
:104D40006421009103A90123FEF722FD0598401C70
:104D50000590EBE70799086889880122FDF7DBF8E1
:104D600008B010BD80B5A2B020901F912098007BA4
:104D7000012804D1FFE70120FFF7D6FEFFE72099C5
:104D8000012008731EA90020169008702098FFF7D4
:104D90004AFFFBF7EDFE1990199847210906FBF72A
:104DA0000BFE199019987C4902F01AFA19907B4869
:104DB0001D907B481C907B481B907B481A901C9848
:104DC00015901B98199902F00BFA159902F098F9B1
:104DD0001890189802F07DF91D9902F091F91A992E
:104DE000FBF7EAFD16991890189802F067F9002869
:104DF00017D1FFE718981F9908602098FFF706FF62
:104E0000002804D1FFE71EA901200870FFE72099C0
:104E1000002008731EA800780121084021A908700D
:104E2000B6E0199861490091FBF7C6FD0099199009
:104E3000199802F0D5F91990199817905C481890B4
:104E40001798FBF78FFD019002911898FBF78AFDE8
:104E50000246019803920A4602990492554A564B1B
:104E6000FBF75CFC039A049BFBF728FCFBF76CFA4E
:104E700018901999179802F0B3F917901798FBF743
:104E800071FD059006911898FBF76CFD0246059898
:104E900007920A4606990892484A494BFBF73EFC9E
:104EA000079A089BFBF70AFCFBF74EFA1890199932
:104EB000179802F095F917901798FBF753FD099092
:104EC0000A911898FBF74EFD024609980B920A4684
:104ED0000A990C923B4A3C4BFBF720FC0B9A0C9B2B
:104EE000FBF7ECFBFBF730FA18901999179802F0D2
:104EF00077F917901798FBF735FD0D900E911898DC
:104F0000FBF730FD02460D980F920A460E9910925B
:104F10002E4A2F4BFBF702FC0F9A109BFBF7CEFBA0
:104F2000FBF712FA18901999179802F059F917908F
:104F30001798FBF717FD119012911898FBF712FDC7
:104F40000246119813920A4612991492214A224B52
:104F5000FBF7E4FB139A149BFBF7B0FBFBF7F4F9A8
:104F6000189018981F9908602098FFF74FFE0028A6
:104F700004D1FFE71EA901200870FFE72099002057
:104F800008731EA800780121084021A90870FFE7D6
:104F900021A8007822B080BD0000D743321180BB29
:104FA00017839337706DC6B27F059BB50000C8426A
:104FB0001F0572C3F163CC5D4BC80140BB82C87D45
:104FC000062F653F93C266C7E03DD4BECE56315131
:104FD000E2425EBE3EFAE46127F3E43D80B584B070
:104FE000039002A80090017003980021FFF768FE6B
:104FF0000146009801AA11700078322806D1FFE717
:1050000001980121084301A9087005E001A9087869
:10501000FE2210400870FFE7039801A90A780021DA
:1050200000F028F804B080BD80B584B0039002A8D9
:105030000090017003980021FFF742FE014600989E
:1050400001AA11700078032806D1FFE7019810210A
:10505000084301A9087005E001A90878EF22104073
:105060000870FFE7039801A90A78002100F002F810
:1050700004B080BD80B588B0079006A8019001708B
:1050800005A8029002700799086889880022FCF739
:1050900042FF0199069880221043087007988068A3
:1050A0000122049264230393FEF718FA0299039BEA
:1050B000049A07988068FEF711FA049A079908681D
:1050C0008988FCF728FF08B080BDFFE7FEE70000F5
:1050D000EFF309800E4B1A6820381060F0C0444688
:1050E0004D4656465F46F0C008B572B601F0BCFDAD
:1050F00062B60CBC116808681030F0C8A046A9461A
:10510000B246BB4680F309882038F0C81847C0462D
:105110008C06002080B5012081025648FCF7D0FEA5
:10512000002804D0FFE757490020887403E0554960
:1051300001208874FFE780BD80B511482021FCF76D
:10514000BFFE002804D0FFE74E490020C87403E0EA
:105150004C490120C874FFE780BDC04680B50848AF
:105160000821FCF7ADFE002804D0FFE745490120E7
:10517000087503E0434900200875FFE780BDC0467D
:105180000004005080B584B00D4802901021FCF757
:1051900097FE0146029801910821FCF791FE0199C2
:1051A000024602985200114303910421FCF788FE45
:1051B00001460398890008433249087404B080BD51
:1051C000000C005080B584B010480190FCF712FC30
:1051D00001986421FCF76AFB0198FCF777F9014616
:1051E000019803AA02921180FCF75AFC02980088E9
:1051F000F12804DBFFE723490220487403E021493A
:1052000001204874FFE704B080BDC046B804002008
:1052100080B584B017480121FCF752FE00280ED05B
:10522000FFE7154815490391FFF79CFD03980168B6
:10523000134A0846FFF71CFC1249C860FFE701202B
:10524000C1020C48FCF73CFE002810D0FFE70E48D6
:105250000E490191FFF786FD01980A49029189687C
:105260000068074AFFF704FC02998860FFE704B072
:1052700080BDC0460008005068060020A400002041
:10528000CDCCCC3D8800002078060020A80000206E
:1052900080B586B00490039102920498039B029912
:1052A00000910321C902002200F03EF8002809D035
:1052B000FFE70499086E20221043086605A9032021
:1052C00008702CE00498039B029900918021002231
:1052D00000F0D2F8002809D0FFE70499086E2022D8
:1052E0001043086605A90320087018E00498039B82
:1052F0000299009103214902002200F015F80028CC
:1053000009D0FFE70499086E20221043086605A91A
:105310000320087003E005A900200870FFE705A836
:10532000007806B080BD000010B58CB00E9C0A90CD
:1053300009910892079302A900200870079801902C
:10534000FCF700FE024601980E99891A4018059054
:10535000FCF7F8FD04900A9800680C30039005995A
:105360009048026823205043000D48430690FFE711
:105370000A9800688068099908400899884273D0A3
:10538000FFE709980321490288420AD1FFE70898FC
:10539000002806D1FFE70398007802A90870029858
:1053A000FFE70798401C00285DD0FFE7FCF7CAFD27
:1053B0000499401A0599884204D2FFE7059800280D
:1053C00046D1FFE70A9801684868E02290434860A8
:1053D0000A98406841218900884215D1FFE70A9860
:1053E00080680121C903884207D0FFE70A988068D6
:1053F00001218902884207D1FFE70A9801680868FD
:10540000402290430860FFE70A98806A012149031F
:1054100088420FD1FFE7FFE70A9801680868012278
:105420005203904308600A980168086810430860B6
:10543000FFE7FFE70A995D2201208854FFE70A99F8
:105440005C2200208854FFE70BA9032008700FE0BE
:105450000698002803D1FFE700200590FFE7069893
:10546000401E0690FFE783E70BA900200870FFE7C6
:105470000BA800780CB010BD10B58AB00C9C089039
:10548000079106A80270059305980190FCF75AFD54
:10549000024601980C99891A40180390FCF752FDB6
:1054A000029003993F4800684001000D4843049072
:1054B000FFE708980068806807990840401A414251
:1054C000484106A90978884263D0FFE70598401C47
:1054D00000285DD0FFE7FCF735FD0299401A0399DB
:1054E000884204D2FFE70398002846D1FFE70898D6
:1054F00001684868E022904348600898406841216C
:105500008900884215D1FFE7089880680121C90306
:10551000884207D0FFE70898806801218902884205
:1055200007D1FFE7089801680868402290430860A7
:10553000FFE70898806A0121490388420FD1FFE7FD
:10554000FFE7089801680868012252039043086049
:1055500008980168086810430860FFE7FFE70899AA
:105560005D2201208854FFE708995C2200208854BE
:10557000FFE709A9032008700FE00498002803D171
:10558000FFE700200390FFE70498401E0490FFE728
:105590008FE709A900200870FFE709A800780AB082
:1055A00010BDC046080000207047000080B584B0E0
:1055B000039001F09BF8642000F0CDFD01F00EF99E
:1055C0000A2000F0C8FD01F009F902A900200870C6
:1055D000FFE7002001F06AF802A801900178084670
:1055E00001F0EEF801990298401C08700B484268DF
:1055F00001680B480123009301F09CF901F0EEF8DB
:10560000009800F0A8FD01980078382804DBFFE737
:1056100002A900200870FFE7DBE7C0460000002079
:105620000C7C000880B582B00190FFE70A2000F0F2
:1056300092FDFBE780B582B00190FFE70A2000F001
:105640008AFDFBE780B582B00190FFE7012000F002
:1056500082FDFBE780B582B00190FEF7B5FEFFF753
:1056600091FDFFE7FBF792FBFFF754FDFFF776FD97
:10567000FFF7A8FDFFF7CCFDFFF75EFD642000F00B
:105680006AFDEFE780B584B003900120C1020B48AA
:10569000FCF72FFCFFE7012001900103074802906F
:1056A000FCF727FC01990298C902FCF722FCFEF7DF
:1056B000B1FE642000F04FFDEDE7C046000400504D
:1056C00080B584B002900298401E000E002803D0DE
:1056D000FFE70120039011E00298401E094908608D
:1056E00000200190C043032100F0C6FC0198064948
:1056F0000860064A072111600390FFE7039804B091
:1057000080BDC04614E000E018E000E010E000E0DA
:1057100080B5FCF7C9FE01F067FB012803D0FFE765
:1057200001F006FBFFE780BD80B594B007A80290AA
:105730003421FAF74DFD002000900690059004906A
:105740000390012001904002FCF75AFF009A019952
:10575000029807910B04089302230E9303230F93DF
:105760001092102211924A04129289071391FDF7A8
:105770007DFA002803D0FFE7FBF75AFCFFE707207C
:1057800003900221049100200590069003A8FDF7E4
:1057900099F8002803D0FFE7FBF74AFCFFE714B0B5
:1057A00080BD704770B58AB009900998406E002896
:1057B00008D1FFE709996A220120885209996822D5
:1057C000885233E008A901910820087007A90870E1
:1057D000099800688068072252061040400E06AA09
:1057E00002921070099800688068420F05A8027044
:1057F000097802780E480490805C48430D49039173
:10580000895CFAF7E7FC019B029A03990446049825
:10581000099D6A26AC531B781278805C5843895CDA
:10582000FAF7D8FC099968228852FFE70AB070BDE0
:10583000EC7B0008E47B000881B0009000982821F0
:10584000405C000700280CD5FFE70098006840681E
:105850000121C903884300998A6B10430968486095
:10586000FFE700982821405CC00700280CD0FFE724
:105870000098006840680121490488430099CA6A79
:10588000104309684860FFE700982821405C8007C2
:1058900000280CD5FFE70098006840680121090442
:1058A000884300990A6B104309684860FFE7009835
:1058B0002821405C400700280CD5FFE700980068CD
:1058C000406801218904884300994A6B10430968A4
:1058D0004860FFE700982821405CC00600280CD5EE
:1058E000FFE7009800688068012109038843009958
:1058F000CA6B104309688860FFE700982821405C64
:10590000800600280CD5FFE7009800688068012118
:105910004903884300990A6C104309688860FFE7CF
:1059200000982821405C400600281DD5FFE700981C
:1059300000684068012109058843009A536C1843A8
:10594000126850600098406C88420CD1FFE70098C4
:105950000068406803214905884300998A6C104318
:1059600009684860FFE7FFE700982821405C0006CF
:1059700000280CD5FFE70098006840680121C904A1
:1059800088430099CA6C104309684860FFE701B07A
:105990007047000080B590B00590059990220020D6
:1059A0008850FCF7CFFA049005980068006800075B
:1059B000002832D5FFE70598049B4D49009101214D
:1059C0004905002200F0AAFA002825D0FFE7FFE7EA
:1059D000EFF3108009900998039001200F900F9821
:1059E00080F3108805980168086880229043086059
:1059F00003980E900E9880F31088FFE7059988228F
:105A000020208850FFE70599842200208854FFE772
:105A100006A90320087066E0FFE7059800680068A3
:105A20004007002849D5FFE70598049B30490091BD
:105A300001218905002200F071FA00283CD0FFE71F
:105A4000FFE7EFF3108008900898029001200D9076
:105A50000D9880F3108805980168086809225201A2
:105A60009043086002980C900C9880F31088FFE730
:105A7000FFE7EFF3108007900798019001220B9247
:105A80000B9880F3108805980168886890438860B7
:105A900001980A900A9880F31088FFE705998C22F4
:105AA00020208850FFE70599842200208854FFE7D2
:105AB00006A90320087016E0FFE705998822202038
:105AC000885005998C22885005990020C866059950
:105AD0000867FFE70599842200208854FFE706A99C
